{
  "_format": "hh-sol-artifact-1",
  "contractName": "DegentralizedToken",
  "sourceName": "contracts/DeToken.sol",
  "abi": [
    {
      "inputs": [
        {
          "internalType": "address",
          "name": "taxWalletAddress",
          "type": "address"
        }
      ],
      "stateMutability": "nonpayable",
      "type": "constructor"
    },
    {
      "anonymous": false,
      "inputs": [
        {
          "indexed": true,
          "internalType": "address",
          "name": "owner",
          "type": "address"
        },
        {
          "indexed": true,
          "internalType": "address",
          "name": "spender",
          "type": "address"
        },
        {
          "indexed": false,
          "internalType": "uint256",
          "name": "value",
          "type": "uint256"
        }
      ],
      "name": "Approval",
      "type": "event"
    },
    {
      "anonymous": false,
      "inputs": [
        {
          "indexed": false,
          "internalType": "uint256",
          "name": "_maxTxAmount",
          "type": "uint256"
        }
      ],
      "name": "MaxTxAmountUpdated",
      "type": "event"
    },
    {
      "anonymous": false,
      "inputs": [
        {
          "indexed": true,
          "internalType": "address",
          "name": "previousOwner",
          "type": "address"
        },
        {
          "indexed": true,
          "internalType": "address",
          "name": "newOwner",
          "type": "address"
        }
      ],
      "name": "OwnershipTransferred",
      "type": "event"
    },
    {
      "anonymous": false,
      "inputs": [
        {
          "indexed": true,
          "internalType": "address",
          "name": "from",
          "type": "address"
        },
        {
          "indexed": true,
          "internalType": "address",
          "name": "to",
          "type": "address"
        },
        {
          "indexed": false,
          "internalType": "uint256",
          "name": "value",
          "type": "uint256"
        }
      ],
      "name": "Transfer",
      "type": "event"
    },
    {
      "inputs": [],
      "name": "_maxSwapAmount",
      "outputs": [
        {
          "internalType": "uint256",
          "name": "",
          "type": "uint256"
        }
      ],
      "stateMutability": "view",
      "type": "function"
    },
    {
      "inputs": [],
      "name": "_maxTxAmount",
      "outputs": [
        {
          "internalType": "uint256",
          "name": "",
          "type": "uint256"
        }
      ],
      "stateMutability": "view",
      "type": "function"
    },
    {
      "inputs": [],
      "name": "_maxWalletAmount",
      "outputs": [
        {
          "internalType": "uint256",
          "name": "",
          "type": "uint256"
        }
      ],
      "stateMutability": "view",
      "type": "function"
    },
    {
      "inputs": [
        {
          "internalType": "address",
          "name": "owner",
          "type": "address"
        },
        {
          "internalType": "address",
          "name": "spender",
          "type": "address"
        }
      ],
      "name": "allowance",
      "outputs": [
        {
          "internalType": "uint256",
          "name": "",
          "type": "uint256"
        }
      ],
      "stateMutability": "view",
      "type": "function"
    },
    {
      "inputs": [
        {
          "internalType": "address",
          "name": "spender",
          "type": "address"
        },
        {
          "internalType": "uint256",
          "name": "amount",
          "type": "uint256"
        }
      ],
      "name": "approve",
      "outputs": [
        {
          "internalType": "bool",
          "name": "",
          "type": "bool"
        }
      ],
      "stateMutability": "nonpayable",
      "type": "function"
    },
    {
      "inputs": [
        {
          "internalType": "address",
          "name": "account",
          "type": "address"
        }
      ],
      "name": "balanceOf",
      "outputs": [
        {
          "internalType": "uint256",
          "name": "",
          "type": "uint256"
        }
      ],
      "stateMutability": "view",
      "type": "function"
    },
    {
      "inputs": [],
      "name": "decimals",
      "outputs": [
        {
          "internalType": "uint8",
          "name": "",
          "type": "uint8"
        }
      ],
      "stateMutability": "pure",
      "type": "function"
    },
    {
      "inputs": [],
      "name": "name",
      "outputs": [
        {
          "internalType": "string",
          "name": "",
          "type": "string"
        }
      ],
      "stateMutability": "pure",
      "type": "function"
    },
    {
      "inputs": [],
      "name": "openTrading",
      "outputs": [],
      "stateMutability": "nonpayable",
      "type": "function"
    },
    {
      "inputs": [],
      "name": "owner",
      "outputs": [
        {
          "internalType": "address",
          "name": "",
          "type": "address"
        }
      ],
      "stateMutability": "view",
      "type": "function"
    },
    {
      "inputs": [],
      "name": "removeLimit",
      "outputs": [],
      "stateMutability": "nonpayable",
      "type": "function"
    },
    {
      "inputs": [],
      "name": "renounceOwnership",
      "outputs": [],
      "stateMutability": "nonpayable",
      "type": "function"
    },
    {
      "inputs": [
        {
          "internalType": "uint256",
          "name": "buyFee",
          "type": "uint256"
        }
      ],
      "name": "setBuyFee",
      "outputs": [],
      "stateMutability": "nonpayable",
      "type": "function"
    },
    {
      "inputs": [
        {
          "internalType": "uint256",
          "name": "amount",
          "type": "uint256"
        }
      ],
      "name": "setMaxSwapAmountAmount",
      "outputs": [],
      "stateMutability": "nonpayable",
      "type": "function"
    },
    {
      "inputs": [
        {
          "internalType": "uint256",
          "name": "amount",
          "type": "uint256"
        }
      ],
      "name": "setMaxTransactionAmount",
      "outputs": [],
      "stateMutability": "nonpayable",
      "type": "function"
    },
    {
      "inputs": [
        {
          "internalType": "uint256",
          "name": "amount",
          "type": "uint256"
        }
      ],
      "name": "setMaxWalletAmount",
      "outputs": [],
      "stateMutability": "nonpayable",
      "type": "function"
    },
    {
      "inputs": [
        {
          "internalType": "uint256",
          "name": "sellFee",
          "type": "uint256"
        }
      ],
      "name": "setSellFee",
      "outputs": [],
      "stateMutability": "nonpayable",
      "type": "function"
    },
    {
      "inputs": [],
      "name": "symbol",
      "outputs": [
        {
          "internalType": "string",
          "name": "",
          "type": "string"
        }
      ],
      "stateMutability": "pure",
      "type": "function"
    },
    {
      "inputs": [],
      "name": "totalSupply",
      "outputs": [
        {
          "internalType": "uint256",
          "name": "",
          "type": "uint256"
        }
      ],
      "stateMutability": "pure",
      "type": "function"
    },
    {
      "inputs": [
        {
          "internalType": "address",
          "name": "recipient",
          "type": "address"
        },
        {
          "internalType": "uint256",
          "name": "amount",
          "type": "uint256"
        }
      ],
      "name": "transfer",
      "outputs": [
        {
          "internalType": "bool",
          "name": "",
          "type": "bool"
        }
      ],
      "stateMutability": "nonpayable",
      "type": "function"
    },
    {
      "inputs": [
        {
          "internalType": "address",
          "name": "sender",
          "type": "address"
        },
        {
          "internalType": "address",
          "name": "recipient",
          "type": "address"
        },
        {
          "internalType": "uint256",
          "name": "amount",
          "type": "uint256"
        }
      ],
      "name": "transferFrom",
      "outputs": [
        {
          "internalType": "bool",
          "name": "",
          "type": "bool"
        }
      ],
      "stateMutability": "nonpayable",
      "type": "function"
    },
    {
      "stateMutability": "payable",
      "type": "receive"
    }
  ],
  "bytecode": "0x6080604052600e600555601360065561001a6012600a6105a4565b61002790620f42406105ba565b600a556012600a61003891906105a4565b61004590620f42406105ba565b600b556100546012600a6105a4565b61006190620f42406105ba565b600c55600e8054600161ff0160a81b0319167401000000000000000000000000000000000000dead17905534801561009857600080fd5b50604051611f82380380611f828339810160408190526100b7916105d1565b600080546001600160a01b031916339081178255604051909182917f8be0079c531659141344cd1fd0a4f28419497f9722a3daafe3b4186f6b6457e0908290a350600d80546001600160a01b03199081166001600160a01b0384161790915560055460075560065460085560016009819055805473c532a74256d3db42d0bf7a0400fefdbad769400892168217905561016b9030906101586012600a6105a4565b610166906305f5e1006105ba565b610379565b600160009054906101000a90046001600160a01b03166001600160a01b031663c45a01556040518163ffffffff1660e01b8152600401602060405180830381865afa1580156101be573d6000803e3d6000fd5b505050506040513d601f19601f820116820180604052508101906101e291906105d1565b6001600160a01b031663c9c6539630600160009054906101000a90046001600160a01b03166001600160a01b031663ad5c46486040518163ffffffff1660e01b8152600401602060405180830381865afa158015610244573d6000803e3d6000fd5b505050506040513d601f19601f8201168201806040525081019061026891906105d1565b6040516001600160e01b031960e085901b1681526001600160a01b039283166004820152911660248201526044016020604051808303816000875af11580156102b5573d6000803e3d6000fd5b505050506040513d601f19601f820116820180604052508101906102d991906105d1565b600280546001600160a01b0319166001600160a01b03929092169190911790556103056012600a6105a4565b610313906305f5e1006105ba565b33600081815260046020526040812092909255907fddf252ad1be2c89b69c2b068fc378daa952ba7f163c4a11628f55a4df523b3ef6103546012600a6105a4565b610362906305f5e1006105ba565b60405190815260200160405180910390a3506105fa565b6001600160a01b0383166103e25760405162461bcd60e51b815260206004820152602560248201527f45524332303a20617070726f76652066726f6d20746865207a65726f206164646044820152643932b9b99760d91b60648201526084015b60405180910390fd5b6001600160a01b0382166104445760405162461bcd60e51b815260206004820152602360248201527f45524332303a20617070726f766520746f20746865207a65726f20616464726560448201526239b99760e91b60648201526084016103d9565b6001600160a01b0383811660008181526003602090815260408083209487168084529482529182902085905590518481527f8c5be1e5ebec7d5bd14f71427d1e84f3dd0314c0f7b2291e5b200ac8c7c3b925910160405180910390a3505050565b634e487b7160e01b600052601160045260246000fd5b6001815b60018411156104f6578085048111156104da576104da6104a5565b60018416156104e857908102905b60019390931c9280026104bf565b935093915050565b60008261050d5750600161059e565b8161051a5750600061059e565b8160018114610530576002811461053a57610556565b600191505061059e565b60ff84111561054b5761054b6104a5565b50506001821b61059e565b5060208310610133831016604e8410600b8410161715610579575081810a61059e565b61058660001984846104bb565b806000190482111561059a5761059a6104a5565b0290505b92915050565b60006105b360ff8416836104fe565b9392505050565b808202811582820484141761059e5761059e6104a5565b6000602082840312156105e357600080fd5b81516001600160a01b03811681146105b357600080fd5b611979806106096000396000f3fe60806040526004361061012e5760003560e01c806370a08231116100ab57806395d89b411161006f57806395d89b4114610347578063a9059cbb14610376578063b79dd34714610396578063c9567bf9146103b6578063dd62ed3e146103cb578063e06bd4a51461041157600080fd5b806370a082311461029e578063715018a6146102d45780637d1db4a5146102e95780638b4cee08146102ff5780638da5cb5b1461031f57600080fd5b806323b872dd116100f257806323b872dd1461021757806327a14fc214610237578063313ce5671461025757806362256589146102735780636c0a24eb1461028857600080fd5b806306fdde031461013a578063095ea7b3146101825780630cc835a3146101b257806318160ddd146101d45780631e293c10146101f757600080fd5b3661013557005b600080fd5b34801561014657600080fd5b5060408051808201909152600d81526c111959d95b9d1c985b1a5e9959609a1b60208201525b6040516101799190611552565b60405180910390f35b34801561018e57600080fd5b506101a261019d3660046115b8565b610427565b6040519015158152602001610179565b3480156101be57600080fd5b506101d26101cd3660046115e4565b61043e565b005b3480156101e057600080fd5b506101e96104d7565b604051908152602001610179565b34801561020357600080fd5b506101d26102123660046115e4565b6104f8565b34801561022357600080fd5b506101a26102323660046115fd565b6105c3565b34801561024357600080fd5b506101d26102523660046115e4565b61062c565b34801561026357600080fd5b5060405160128152602001610179565b34801561027f57600080fd5b506101d26106eb565b34801561029457600080fd5b506101e9600a5481565b3480156102aa57600080fd5b506101e96102b936600461163e565b6001600160a01b031660009081526004602052604090205490565b3480156102e057600080fd5b506101d26107ad565b3480156102f557600080fd5b506101e9600b5481565b34801561030b57600080fd5b506101d261031a3660046115e4565b610821565b34801561032b57600080fd5b506000546040516001600160a01b039091168152602001610179565b34801561035357600080fd5b506040805180820190915260068152652222a3a32aa760d11b602082015261016c565b34801561038257600080fd5b506101a26103913660046115b8565b6108b3565b3480156103a257600080fd5b506101d26103b13660046115e4565b6108c0565b3480156103c257600080fd5b506101d261098a565b3480156103d757600080fd5b506101e96103e636600461165b565b6001600160a01b03918216600090815260036020908152604080832093909416825291909152205490565b34801561041d57600080fd5b506101e9600c5481565b6000610434338484610a31565b5060015b92915050565b6000546001600160a01b031633146104715760405162461bcd60e51b815260040161046890611694565b60405180910390fd5b60148111156104d25760405162461bcd60e51b815260206004820152602760248201527f7365744275794665653a206275794665652073686f756c646e2774206578636560448201526632b2101918129760c91b6064820152608401610468565b600755565b60006104e56012600a6117c6565b6104f3906305f5e1006117d5565b905090565b6000546001600160a01b031633146105225760405162461bcd60e51b815260040161046890611694565b620f42408110156105a75760405162461bcd60e51b815260206004820152604360248201527f7365744d61785472616e73616374696f6e416d6f756e743a20416d6f756e742060448201527f73686f756c64206265206d6f7265207468616e203130303030303020746f6b6560648201526237399760e91b608482015260a401610468565b6105b36012600a6117c6565b6105bd90826117d5565b600b5550565b60006105d0848484610b58565b610622843361061d8560405180606001604052806029815260200161191b602991396001600160a01b038a16600090815260036020908152604080832033845290915290205491906111b0565b610a31565b5060019392505050565b6000546001600160a01b031633146106565760405162461bcd60e51b815260040161046890611694565b620f42408110156106cf5760405162461bcd60e51b815260206004820152603e60248201527f7365744d617857616c6c6574416d6f756e743a20416d6f756e742073686f756c60448201527f64206265206d6f7265207468616e203130303030303020746f6b656e732e00006064820152608401610468565b6106db6012600a6117c6565b6106e590826117d5565b600a5550565b6000546001600160a01b031633146107155760405162461bcd60e51b815260040161046890611694565b6107216012600a6117c6565b61072f906305f5e1006117d5565b600b5561073e6012600a6117c6565b61074c906305f5e1006117d5565b600a908155600e805460ff60a01b191690557f947f344d56e1e8c70dc492fb94c4ddddd490c016aab685f5e7e47b2e85cb44cf9061078c906012906117c6565b61079a906305f5e1006117d5565b60405190815260200160405180910390a1565b6000546001600160a01b031633146107d75760405162461bcd60e51b815260040161046890611694565b600080546040516001600160a01b03909116907f8be0079c531659141344cd1fd0a4f28419497f9722a3daafe3b4186f6b6457e0908390a3600080546001600160a01b0319169055565b6000546001600160a01b0316331461084b5760405162461bcd60e51b815260040161046890611694565b60148111156108ae5760405162461bcd60e51b815260206004820152602960248201527f73657453656c6c4665653a2073656c6c4665652073686f756c646e277420657860448201526831b2b2b2101918129760b91b6064820152608401610468565b600855565b6000610434338484610b58565b6000546001600160a01b031633146108ea5760405162461bcd60e51b815260040161046890611694565b620f424081101561096e5760405162461bcd60e51b815260206004820152604260248201527f7365744d617853776170416d6f756e74416d6f756e743a20416d6f756e74207360448201527f686f756c64206265206d6f7265207468616e203130303030303020746f6b656e606482015261399760f11b608482015260a401610468565b61097a6012600a6117c6565b61098490826117d5565b600c5550565b6000546001600160a01b031633146109b45760405162461bcd60e51b815260040161046890611694565b600e54600160a81b900460ff1615610a1c5760405162461bcd60e51b815260206004820152602560248201527f6f70656e54726164696e673a2054726164696e6720697320616c72656164792060448201526437b832b71760d91b6064820152608401610468565b600e805460ff60a81b1916600160a81b179055565b6001600160a01b038316610a955760405162461bcd60e51b815260206004820152602560248201527f45524332303a20617070726f76652066726f6d20746865207a65726f206164646044820152643932b9b99760d91b6064820152608401610468565b6001600160a01b038216610af75760405162461bcd60e51b815260206004820152602360248201527f45524332303a20617070726f766520746f20746865207a65726f20616464726560448201526239b99760e91b6064820152608401610468565b6001600160a01b0383811660008181526003602090815260408083209487168084529482529182902085905590518481527f8c5be1e5ebec7d5bd14f71427d1e84f3dd0314c0f7b2291e5b200ac8c7c3b925910160405180910390a3505050565b6001600160a01b038316610bbd5760405162461bcd60e51b815260206004820152602660248201527f45524332303a207472616e736665722066726f6d20746865207a65726f206164604482015265323932b9b99760d11b6064820152608401610468565b6001600160a01b038216610c1f5760405162461bcd60e51b8152602060048201526024808201527f45524332303a207472616e7366657220746f20746865207a65726f206164647260448201526332b9b99760e11b6064820152608401610468565b60008111610c8d5760405162461bcd60e51b815260206004820152603560248201527f5f7472616e736665723a205472616e7366657220616d6f756e74206d7573742060448201527431329033b932b0ba32b9103a3430b7103d32b9379760591b6064820152608401610468565b6000806000610ca46000546001600160a01b031690565b6001600160a01b0316866001600160a01b031614158015610cd357506000546001600160a01b03868116911614155b15610fe757600b54841115610d505760405162461bcd60e51b815260206004820152603d60248201527f5f7472616e736665723a20416d6f756e74206f66207472616e7366657220657860448201527f6365656473206d6178207472616e73616374696f6e20616d6f756e742e0000006064820152608401610468565b6002546001600160a01b038781169116148015610d7b57506001546001600160a01b03868116911614155b15610e9957600e54600160a81b900460ff16610da95760405162461bcd60e51b8152600401610468906117ec565b600a5484610dcc876001600160a01b031660009081526004602052604090205490565b610dd6919061182d565b1115610e4a5760405162461bcd60e51b815260206004820152603860248201527f5f7472616e736665723a20416d6f756e74206f66207472616e7366657220657860448201527f6365656473206d61782077616c6c657420616d6f756e742e00000000000000006064820152608401610468565b610e6a6064610e64600754876111ea90919063ffffffff16565b90611273565b9250610e866064610e64600954876111ea90919063ffffffff16565b9150610e9283836112b5565b9050610fe7565b6002546001600160a01b0390811690861603610fe357600e54600160a81b900460ff16610ed85760405162461bcd60e51b8152600401610468906117ec565b610ef26064610e64600854876111ea90919063ffffffff16565b9250610f0e6064610e64600954876111ea90919063ffffffff16565b9150610f1a83836112b5565b30600090815260046020526040902054600e5491925090600160b01b900460ff16158015610f5557506002546001600160a01b038781169116145b15610fdd57600e54600160a01b900460ff1615610fb9576000600c548211610f7d5781610f81565b600c545b9050610f99818711610f935786611314565b81611314565b4766b1a2bc2ec50000811115610fb257610fb2476114a4565b5050610fdd565b610fc281611314565b4766b1a2bc2ec50000811115610fdb57610fdb476114a4565b505b50610fe7565b5060005b80156110e5573060009081526004602052604090205461100790846112b5565b30600081815260046020526040908190209290925590516001600160a01b038816907fddf252ad1be2c89b69c2b068fc378daa952ba7f163c4a11628f55a4df523b3ef906110589087815260200190565b60405180910390a3600e546001600160a01b031660009081526004602052604090205461108590836112b5565b600e80546001600160a01b03908116600090815260046020908152604091829020949094559154915185815291811692908916917fddf252ad1be2c89b69c2b068fc378daa952ba7f163c4a11628f55a4df523b3ef910160405180910390a35b6001600160a01b03861660009081526004602052604090205461110890856114e2565b6001600160a01b03871660009081526004602052604090205561114d61112e85836114e2565b6001600160a01b038716600090815260046020526040902054906112b5565b6001600160a01b0380871660008181526004602052604090209290925587167fddf252ad1be2c89b69c2b068fc378daa952ba7f163c4a11628f55a4df523b3ef61119787856114e2565b60405190815260200160405180910390a3505050505050565b600081848411156111d45760405162461bcd60e51b81526004016104689190611552565b5060006111e18486611840565b95945050505050565b6000826000036111fc57506000610438565b600061120883856117d5565b9050826112158583611853565b1461126c5760405162461bcd60e51b815260206004820152602160248201527f536166654d6174683a206d756c7469706c69636174696f6e206f766572666c6f6044820152607760f81b6064820152608401610468565b9392505050565b600061126c83836040518060400160405280601a81526020017f536166654d6174683a206469766973696f6e206279207a65726f000000000000815250611524565b6000806112c2838561182d565b90508381101561126c5760405162461bcd60e51b815260206004820152601b60248201527f536166654d6174683a206164646974696f6e206f766572666c6f7700000000006044820152606401610468565b600e805460ff60b01b1916600160b01b179055801561149457600b5481111561133c5750600b545b604080516002808252606082018352600092602083019080368337019050509050308160008151811061137157611371611875565b6001600160a01b03928316602091820292909201810191909152600154604080516315ab88c960e31b81529051919093169263ad5c46489260048083019391928290030181865afa1580156113ca573d6000803e3d6000fd5b505050506040513d601f19601f820116820180604052508101906113ee919061188b565b8160018151811061140157611401611875565b6001600160a01b0392831660209182029290920101526001546114279130911684610a31565b60015460405163791ac94760e01b81526001600160a01b039091169063791ac947906114609085906000908690309042906004016118a8565b600060405180830381600087803b15801561147a57600080fd5b505af115801561148e573d6000803e3d6000fd5b50505050505b50600e805460ff60b01b19169055565b600d546040516001600160a01b039091169082156108fc029083906000818181858888f193505050501580156114de573d6000803e3d6000fd5b5050565b600061126c83836040518060400160405280601e81526020017f536166654d6174683a207375627472616374696f6e206f766572666c6f7700008152506111b0565b600081836115455760405162461bcd60e51b81526004016104689190611552565b5060006111e18486611853565b602081526000825180602084015260005b818110156115805760208186018101516040868401015201611563565b506000604082850101526040601f19601f83011684010191505092915050565b6001600160a01b03811681146115b557600080fd5b50565b600080604083850312156115cb57600080fd5b82356115d6816115a0565b946020939093013593505050565b6000602082840312156115f657600080fd5b5035919050565b60008060006060848603121561161257600080fd5b833561161d816115a0565b9250602084013561162d816115a0565b929592945050506040919091013590565b60006020828403121561165057600080fd5b813561126c816115a0565b6000806040838503121561166e57600080fd5b8235611679816115a0565b91506020830135611689816115a0565b809150509250929050565b6020808252818101527f4f776e61626c653a2063616c6c6572206973206e6f7420746865206f776e6572604082015260600190565b634e487b7160e01b600052601160045260246000fd5b6001815b600184111561171a578085048111156116fe576116fe6116c9565b600184161561170c57908102905b60019390931c9280026116e3565b935093915050565b60008261173157506001610438565b8161173e57506000610438565b8160018114611754576002811461175e5761177a565b6001915050610438565b60ff84111561176f5761176f6116c9565b50506001821b610438565b5060208310610133831016604e8410600b841016171561179d575081810a610438565b6117aa60001984846116df565b80600019048211156117be576117be6116c9565b029392505050565b600061126c60ff841683611722565b8082028115828204841417610438576104386116c9565b60208082526021908201527f5f7472616e736665723a205472616465206973206e6f7420796574206f70656e6040820152601760f91b606082015260800190565b80820180821115610438576104386116c9565b81810381811115610438576104386116c9565b60008261187057634e487b7160e01b600052601260045260246000fd5b500490565b634e487b7160e01b600052603260045260246000fd5b60006020828403121561189d57600080fd5b815161126c816115a0565b600060a0820187835286602084015260a0604084015280865180835260c08501915060208801925060005b818110156118fa5783516001600160a01b03168352602093840193909201916001016118d3565b50506001600160a01b03959095166060840152505060800152939250505056fe45524332303a207472616e7366657220616d6f756e74206578636565647320616c6c6f77616e63652ea2646970667358221220049b17119aebe61515106fe0fc8299b3f0c6ab0efe4ae16951ea8c91bc38d58564736f6c634300081b0033",
  "linkReferences": {},
  "deployedLinkReferences": {}
}